:100000000C943A000C94B2010C94B2010C94B2011D
:100010000C94B2010C94B2010C94B2010C94B20194
:100020000C94B2010C94B2010C94B2010C94B20184
:100030000C94B2010C94B2010C94B2010C94B20174
:100040000C94B2010C94B2010C94B2010C94B20164
:100050000C94B2010C94B2010C94B2010C94B20154
:100060000C94B2010C94B201010001100003720162
:1000700010011B8011241FBECFEFD8E0DEBFCDBF23
:10008000E8E6F0E040E017C0B591A59135912591E3
:10009000059107FD0CC095918591EF01F92FE82F8F
:1000A00005900D92A217B307D9F7FE0104C01D9267
:1000B000A217B307E1F7E437F40731F70E946B01A9
:0800C0000C94A101F894FFCF9C
:1000C8008091100190911101A0911201B09113013A
:1000D8008C599F4FAF4FBF4F8093100190931101E0
:1000E800A0931201B093130180911401909115010E
:1000F8008C599F4F909315018093140196B180916C
:100108001901811125C0439A429A4198449845980B
:1001180090FD0EC0809114019091150181159D47A5
:1001280038F480E09DE790931501809314010895B9
:1001380080911401909115018031944A08F464C0AB
:1001480081E080931901109215011092140108950D
:100158008130A9F4449A429A4398419845988091ED
:10016800140190911501883B9B4008F44DC082E032
:10017800809319011092150110921401089582308C
:1001880009F042C0459A439844988091140190918F
:100198001501803E2EE2920718F4419A429808957C
:1001A80088399A4358F5419880911801811108C0FF
:1001B80081E08093180180931601809317010895B8
:1001C800909117019F5F909317018DEC989F812D57
:1001D800112486958695282F220F220F820F9813B7
:1001E80013C08091160191E0811190E0909316015F
:1001F800811102C0429A08954298089510921901F7
:0A02080010921501109214010895E0
:1002120090911A01992319F09130B9F030C02998C0
:100222009DEC899F912D1124969596959695990FFF
:10023200292F220F220F920F891BE82FF0E0E050A6
:10024200FF4F80818BB9289A1AC028989DEC899F0C
:10025200E12D1124E695E695E695E99F812D11247D
:10026200869586958695880F982F990F990F890FF5
:10027200E81BF0E0E050FF4F80818BB9299A809112
:0C0282001A018F5F817080931A010895AB
:10028E00809119018230E1F4209114013091150111
:10029E0028398AE33807B0F4369527953695279591
:1002AE0036952795A5ECB0E20E9492019C013295FD
:1002BE0022952F7023273F7023278FE0821B0895EE
:0802CE0080E0089580E008952E
:1002D6000E94AC010E947F01C4E10E9447010E9476
:1002E60009018FE19EE40197F1F700C00000C150BB
:0802F600A1F70E946400F0CFA3
:1002FE008EE387B981E088B9109210011092110136
:10030E001092120110921301109215011092140105
:06031E0010921901089580
:10032400A29FB001B39FC001A39F700D811D112432
:0E033400911DB29F700D811D1124911D089521
:10034200EC010E94B7010E94B601CE010E94B801E1
:06035200CE010E94B4017F
:0C0358008FEF8AB91BB8209A219A0895F3
:040364000C940000F5
:040368000E9462008D
:02036C000895F2
:02036E000895F0
:020370000895EE
:100372003F065B4F666D7D077F6F777C395E7971D3
:00000001FF
